:100000000C9465000C948D000C948D000C940502EA
:100010000C9405020C9405020C948D000C948D0038
:100020000C948D000C948D000C948D000C948D001C
:100030000C948D000C948D000C948D000C948D000C
:100040000C943A060C948D000C943F050C947105A9
:100050000C948D000C948D000C948D000C948D00EC
:100060000C948D000C948D0000000008000201002B
:100070000003040700000000000000000102040863
:100080001020408001020408102001020408102002
:10009000040404040404040402020202020203032E
:1000A00003030303000000002300260029000000D2
:1000B0000000250028002B0000000000240027007D
:1000C0002A00D800B403A105DF0011241FBECFEF22
:1000D000D8E0DEBFCDBF11E0A0E0B1E0E8EAFFE08C
:1000E00002C005900D92A635B107D9F726E0A6E526
:1000F000B1E001C01D92A532B207E1F710E0C8ECF3
:10010000D0E004C02297FE010E94C307C23CD10781
:10011000C9F70E94EB030C94C7070C94000061E040
:1001200084E00E94E80661E08EE00E94E80661E05B
:1001300087E00E94E80661E088E00E94E80661E04E
:1001400084E00E94210760E087E00E94210760E0D0
:1001500088E00C94210740E052EC61E070E086E515
:1001600091E00E940E0360E084E00C94210786E594
:1001700091E00C94220660E071E08FE795E00E9428
:10018000280661E087E00C942107CF93DF93EC0110
:1001900088E00E945707019741F48B81811105C0C7
:1001A000CE010E94BB0081E08B83DF91CF91089547
:1001B00020E045E066E086E591E00C94DE0286E50D
:1001C00091E00C948502CF93DF93EC0186E591E0FA
:1001D0000E94AC0118161906FCF486E591E00E9415
:1001E00010018D3099F3288139818A3049F481E0FA
:1001F0008A83FE01E20FF31F1482198218820DC058
:100200002F3331051CF7FE01E20FF31F84832F5FAC
:100210003F4F39832883DACF80E0DF91CF91089573
:100220002091790330917A0328173907F9F4209146
:1002300075013091760180917701909178012817AE
:100240003907A1F0E0917501F0917601E758FE4F72
:10025000808120917501309176012F5F3F4F317081
:10026000309376012093750190E008958FEF9FEF12
:1002700008951F93CF93DF93DC015C968D919C9141
:100280005D97009749F481E090E013969C938E93DC
:10029000129780E090E03BC05196ED91FC9152970F
:1002A00050962C915097322F30951FB75E964C91F7
:1002B0005E9741FB772770F941FD6095F894408186
:1002C000772311F0422B01C043234083EC01219797
:1002D000F1F748E0508160FF02C0522B01C0532368
:1002E0005083EC012197F1F76695415099F7808191
:1002F000772311F0832301C0822B80831FBF5C967C
:100300008D919C915D970197F1F781E090E0DF91ED
:10031000CF911F91089508952091790330917A0328
:1003200028173907B1F42091750130917601809139
:100330007701909178012817390759F0E0917501FC
:10034000F0917601E758FE4F8081992787FD9095BF
:1003500008958FEF9FEF08952091790330917A03EC
:100360002817390761F480917701909178012091E5
:10037000750130917601821B930B9170089580E096
:1003800090E00895E0917903F0917A03E817F90776
:1003900069F4A389B4899C918589809589238C937C
:1003A00010927A031092790381E0089580E0089515
:1003B000CF93DF93EC018A8D9B8D892B11F1809176
:1003C000790390917A038C179D07D9F0009711F06B
:1003D0000E94C2018E8D8E7F8E8F109278011092B6
:1003E00077011092760110927501D0937A03C09331
:1003F0007903EB89FC8980819D89892B808381E049
:1004000001C080E0DF91CF9108951F920F920FB647
:100410000F9211242F933F934F935F936F937F938A
:100420008F939F93AF93BF93EF93FF93E0917903E3
:10043000F0917A03309709F457C0868DA685B78569
:10044000958581FF04C08C91892329F44DC08C913E
:10045000892309F049C0A389B4899C918589809535
:1004600089238C93868997890197F1F7208D318DA7
:10047000A685B785758558E040E0C9010197F1F779
:10048000842F90E095958795482F6C91672309F00C
:100490004068515091F7868D81FD4095809177019C
:1004A00090917801019691702091750130917601BB
:1004B0008217930761F0A0917701B0917801A75856
:1004C000BE4F4C93909378018093770103C0868D43
:1004D0008160868F828D938D0197F1F7A389B4890E
:1004E0008C919589892B8C93FF91EF91BF91AF915E
:1004F0009F918F917F916F915F914F913F912F913C
:100500000F900FBE0F901F90189523E131E0FC0172
:10051000318320830C94C2011F93CF93DF93EC01AE
:10052000162F6E8D6695617081E06827812F0E947D
:10053000210761E0812F0E94E806812F90E0FC01F5
:10054000E458FF4FE491E88BFC01E057FF4FE49142
:10055000F0E0EE0FFF1FE255FF4F859194919A8BCB
:10056000898BDF91CF911F9108951F93CF93DF93D4
:10057000EC01162F60E0812F0E94E8068E8D81FD30
:1005800004C061E0812F0E9421071C87812F90E029
:10059000FC01E458FF4FE491ED87FC01E057FF4F69
:1005A000E491F0E0EE0FFF1FEC55FF4F8591949121
:1005B0009F878E87DF91CF911F910895FF920F93B0
:1005C0001F93CF93DF93EC01F62E522F1B821A82DA
:1005D00008EE13E020E030E00C831D832E833F8380
:1005E00083E191E0998388831F8A1E8A198E188E71
:1005F0001B8E1A8E1D8E1C8E8E8D8E7F50FB81F968
:100600008E8F642FCE010E948C026F2DCE01DF9160
:10061000CF911F910F91FF900C94B502CF93DF9370
:10062000EC019A01AB011B8E1A8E198E188E1F8A4F
:100630001E8A60E079E08DE390E00E94A207C90184
:100640002430310520F0B9016350710902C061E026
:1006500070E07D8F6C8FEC85E63108F068C0B901E1
:10066000769567956431710518F06351710902C080
:1006700061E070E07F8B6E8B069718F0C9010597DB
:1006800002C081E090E0998F888FC901880F991F7F
:10069000820F931F96958795969587958D30910536
:1006A00010F00C9702C081E090E09B8F8A8F209120
:1006B0006800E83050F091E0EE3008F490E081E01E
:1006C00001C0880F9A95EAF701C084E0822B8093DD
:1006D00068002C85283038F02E3040F0263148F460
:1006E0008CE690E008C08DE690E005C08BE690E0D7
:1006F00002C080E090E09C8B8B8B283030F481E04E
:1007000001C0880F2A95EAF70DC0822F90E02E30A5
:1007100010F4089701C00E9791E001C0990F8A95D7
:10072000EAF7892F8D8B8C8D9D8D0197F1F7CE0186
:10073000DF91CF910C94D80108958BE793E00E944C
:100740008F0026E040E052EC61E070E08FE795E03A
:100750000E94DD048BE793E00E94AB006FE171E043
:100760008FE795E00C94280610927C0310927B038F
:1007700010927D0310927E030895CF93DF9300D0F3
:10078000CDB7DEB78FE795E00E94FA031816190679
:100790006CF48FE795E00E94130489831A82BE01EE
:1007A0006F5F7F4F8BE793E00E94B7008BE793E08A
:1007B0000E94E300882331F06FE773E08FE795E054
:1007C0000E9428068BE793E00E94C5000F900F90CF
:1007D000DF91CF9108950E9484060E949C030E949D
:1007E0009D03C7E2D4E00E94BD032097E1F30E947D
:1007F0002704F9CFFC01818D228D90E0805C9F4F12
:10080000821B91098F7399270895FC01918D828D28
:10081000981731F0828DE80FF11D858D90E00895D5
:100820008FEF9FEF0895FC01918D828D981761F0F5
:10083000828DDF01A80FB11D5D968C91928D9F5F17
:100840009F73928F90E008958FEF9FEF089587E94F
:1008500095E0892B49F080E090E0892B29F00E94F7
:10086000970581110C9400000895FC01848DDF012F
:10087000A80FB11DA35ABF4F2C91848D90E0019613
:100880008F739927848FA689B7892C93A089B18902
:100890008C9180648C93938D848D981306C002880C
:1008A000F389E02D80818F7D80830895CF93DF933E
:1008B000EC01888D8823C9F0EA89FB89808185FD58
:1008C00005C0A889B9898C9186FD0FC00FB607FCB9
:1008D000F5CF808185FFF2CFA889B9898C9185FFFA
:1008E000EDCFCE010E943504E7CFDF91CF9108957F
:1008F000CF92DF92FF920F931F93CF93DF931F92BC
:10090000CDB7DEB76C0181E0D60158968C9358972D
:100910005B969C915B975C968C915C97981307C053
:100920005096ED91FC915197808185FD2EC0F60186
:10093000038D10E00F5F1F4F0F731127F02EF6018C
:10094000848DF81211C00FB607FCF9CFD60150966E
:10095000ED91FC915197808185FFF1CFC6016983AC
:100960000E9435046981EBCF838DE80FF11DE35AB6
:10097000FF4F6083D6015B960C935B975296ED9187
:10098000FC915397808180620CC0D6015696ED9100
:10099000FC91579760835096ED91FC91519780811F
:1009A0008064808381E090E00F90DF91CF911F9170
:1009B0000F91FF90DF90CF900895BF92CF92DF927A
:1009C000EF92FF92CF93DF93EC016A017B01B22E8D
:1009D000E889F98982E08083411581EE5807610535
:1009E0007105A1F060E079E08DE390E0A701960148
:1009F0000E948007215031094109510956954795B8
:100A000037952795211580E1380798F0E889F9890D
:100A1000108260E874E88EE190E0A70196010E94E0
:100A2000800721503109410951095695479537955D
:100A30002795EC85FD853083EE85FF852083188E14
:100A4000EC89FD89B082EA89FB898081806180839D
:100A5000EA89FB89808188608083EA89FB898081BB
:100A600080688083EA89FB8980818F7D8083DF9124
:100A7000CF91FF90EF90DF90CF90BF9008951F929D
:100A80000F920FB60F9211242F938F939F93EF9392
:100A9000FF93E0918F05F09190058081E09195059D
:100AA000F091960582FD12C09081809198058F5F2C
:100AB0008F7320919905821751F0E0919805F0E02D
:100AC000E158FA4F958F8093980501C08081FF917E
:100AD000EF919F918F912F910F900FBE0F901F90CC
:100AE00018951F920F920FB60F9211242F933F93D8
:100AF0004F935F936F937F938F939F93AF93BF9326
:100B0000EF93FF938FE795E00E943504FF91EF91FB
:100B1000BF91AF919F918F917F916F915F914F9115
:100B20003F912F910F900FBE0F901F9018958FE758
:100B300095E00E94FA0321E0892B09F420E0822F3E
:100B40000895109282051092810588EE93E0A0E04E
:100B5000B0E08093830590938405A0938505B093BE
:100B6000860589E391E09093800580937F0585EC6D
:100B700090E090938C0580938B0584EC90E09093AB
:100B80008E0580938D0580EC90E090939005809386
:100B90008F0581EC90E0909392058093910582EC13
:100BA00090E0909394058093930586EC90E0909369
:100BB00096058093950510929805109299051092CC
:100BC0009A0510929B050895CF92DF92EF92FF92C3
:100BD0000F931F93CF93DF937C016A01EB0100E039
:100BE00010E00C151D0571F06991D701ED91FC9194
:100BF0000190F081E02DC7010995892B19F00F5F55
:100C00001F4FEFCFC801DF91CF911F910F91FF9040
:100C1000EF90DF90CF9008956115710581F0DB01B1
:100C20000D900020E9F7AD0141505109461B570BCB
:100C3000DC01ED91FC910280F381E02D099480E0CC
:100C400090E008950C940C0665E471E00C940C0699
:100C50000F931F93CF93DF93EC010E940C068C013E
:100C6000CE010E942406800F911FDF91CF911F912A
:100C70000F9108951F920F920FB60F9211242F9388
:100C80003F938F939F93AF93BF9380911D06909155
:100C90001E06A0911F06B091200630911C0623E08D
:100CA000230F2D3720F40196A11DB11D05C026E8A4
:100CB000230F0296A11DB11D20931C0680931D06D3
:100CC00090931E06A0931F06B093200680912106E4
:100CD00090912206A0912306B09124060196A11DB1
:100CE000B11D8093210690932206A0932306B09312
:100CF0002406BF91AF919F918F913F912F910F90BB
:100D00000FBE0F901F901895789484B5826084BDB3
:100D100084B5816084BD85B5826085BD85B58160FF
:100D200085BDEEE6F0E0808181608083E1E8F0E05F
:100D30001082808182608083808181608083E0E88E
:100D4000F0E0808181608083E1EBF0E0808184606D
:100D50008083E0EBF0E0808181608083EAE7F0E06F
:100D600080818460808380818260808380818160D3
:100D700080838081806880831092C10008958330D1
:100D800081F028F4813099F08230A1F00895873005
:100D9000A9F08830B9F08430D1F4809180008F7D43
:100DA00003C0809180008F7780938000089584B580
:100DB0008F7702C084B58F7D84BD08958091B00087
:100DC0008F7703C08091B0008F7D8093B00008952D
:100DD000CF93DF9390E0FC01E458FF4F2491FC0196
:100DE000E057FF4F8491882349F190E0880F991FC5
:100DF000FC01E854FF4FA591B49182559F4FFC012F
:100E0000C591D4919FB7611108C0F8948C91209539
:100E100082238C93888182230AC0623051F4F89433
:100E20008C91322F309583238C938881822B8883F9
:100E300004C0F8948C91822B8C939FBFDF91CF914B
:100E400008950F931F93CF93DF931F92CDB7DEB713
:100E5000282F30E0F901E859FF4F8491F901E45857
:100E6000FF4F1491F901E057FF4F04910023C9F09F
:100E7000882321F069830E94BF066981E02FF0E09A
:100E8000EE0FFF1FE255FF4FA591B4919FB7F89465
:100E90008C91611103C01095812301C0812B8C932B
:100EA0009FBF0F90DF91CF911F910F910895CF9326
:100EB000DF93282F30E0F901E859FF4F8491F901C1
:100EC000E458FF4FD491F901E057FF4FC491CC2370
:100ED00091F081110E94BF06EC2FF0E0EE0FFF1F92
:100EE000EC55FF4FA591B4912C912D2381E090E01A
:100EF00021F480E002C080E090E0DF91CF9108957E
:100F0000A1E21A2EAA1BBB1BFD010DC0AA1FBB1F0D
:100F1000EE1FFF1FA217B307E407F50720F0A21B7F
:100F2000B30BE40BF50B661F771F881F991F1A94EC
:100F300069F760957095809590959B01AC01BD0116
:100F4000CF010895052E97FB1EF400940E94B90767
:100F500057FD07D00E94800707FC03D04EF40C9485
:100F6000B90750954095309521953F4F4F4F5F4FB2
:100F7000089590958095709561957F4F8F4F9F4F05
:100F80000895EE0FFF1F0590F491E02D099410E0F5
:100F9000C8ECD0E004C0FE010E94C3072296CA3C00
:080FA000D107C9F7F894FFCF57
:100FA80057616B696E6720757020524E35320000AC
:100FB8000000003901E405AC0110018C018B0152DD
:100FC8004E35322070726F6772616D6D696E672081
:100FD8006D6F646500000000007804E405FA0313EF
:100FE80004050456040D0A006E616E00696E660001
:060FF8006F7666002E007A
:00000001FF
