:100000000C9465000C948D000C948D000C941202DD
:100010000C9412020C9412020C948D000C948D001E
:100020000C948D000C948D000C948D000C948D001C
:100030000C948D000C948D000C948D000C948D000C
:100040000C9403070C948D000C9446050C947805D1
:100050000C948D000C948D000C948D000C948D00EC
:100060000C948D000C948D0000000008000201002B
:100070000003040700000000000000000102040863
:100080001020408001020408102001020408102002
:10009000040404040404040402020202020203032E
:1000A00003030303000000002300260029000000D2
:1000B0000000250028002B0000000000240027007D
:1000C0002A00E500C103A805EC0011241FBECFEFF4
:1000D000D8E0DEBFCDBF11E0A0E0B1E0E2EDF1E19C
:1000E00002C005900D92A239B107D9F726E0A2E926
:1000F000B1E001C01D92A036B207E1F710E0C8ECF4
:10010000D0E004C02297FE010E94D808C23CD1076B
:10011000C9F70E94F2030C94DC080C94000061E023
:1001200084E00E94FC0760E08EE00E94FC0761E032
:1001300089E00E94FC0761E084E00C943508CF93CD
:10014000DF9361E089E00E94350889E00E946B0836
:10015000EC0160E071E08AEB95E00E9429064AE03C
:1001600050E0BE018AEB95E00E94EB0660ED77E07F
:1001700080E090E00E94700760E089E00E9435080E
:1001800089E00E946B08EC0160E071E08AEB95E089
:100190000E9429064AE050E0BE018AEB95E0DF911B
:1001A000CF910C94EB060E949F0040E855E260E07E
:1001B00070E082E991E00E941B0360E084E00C940F
:1001C000350882E991E00C94290620E045E066E0DC
:1001D00082E991E00C94EB0282E991E00C949202A6
:1001E000CF93DF93EC0182E991E00E94B9011816E8
:1001F0001906FCF482E991E00E941D018D3099F30B
:10020000288139818A3049F481E08A83FE01E20F36
:10021000F31F1382198218820DC02F3331051CF78A
:10022000FE01E20FF31F83832F5F3F4F3983288343
:10023000DACF80E0DF91CF9108952091B50330911E
:10024000B60328173907F9F42091B1013091B201B2
:100250008091B3019091B40128173907A1F0E09182
:10026000B101F091B201EB54FE4F80812091B101B8
:100270003091B2012F5F3F4F31703093B201209324
:10028000B10190E008958FEF9FEF08951F93CF93F2
:10029000DF93DC015C968D919C915D97009749F40A
:1002A00081E090E013969C938E93129780E090E00B
:1002B0003BC05196ED91FC91529750962C915097DE
:1002C000322F30951FB75E964C915E9741FB772792
:1002D00070F941FD6095F8944081772311F0422B2D
:1002E00001C043234083EC012197F1F748E050819E
:1002F00060FF02C0522B01C053235083EC012197B1
:10030000F1F76695415099F78081772311F08323A7
:1003100001C0822B80831FBF5C968D919C915D975D
:100320000197F1F781E090E0DF91CF911F9108955F
:1003300008952091B5033091B60328173907B1F419
:100340002091B1013091B2018091B3019091B4013B
:100350002817390759F0E091B101F091B201EB543F
:10036000FE4F8081992787FD909508958FEF9FEF2D
:1003700008952091B5033091B6032817390761F429
:100380008091B3019091B4012091B1013091B201FB
:10039000821B930B9170089580E090E00895E091A6
:1003A000B503F091B603E817F90769F4A389B48996
:1003B0009C918589809589238C931092B603109225
:1003C000B50381E0089580E00895CF93DF93EC01B9
:1003D0008A8D9B8D892B11F18091B5039091B60385
:1003E0008C179D07D9F0009711F00E94CF018E8DD8
:1003F0008E7F8E8F1092B4011092B3011092B201D1
:100400001092B101D093B603C093B503EB89FC8978
:1004100080819D89892B808381E001C080E0DF910C
:10042000CF9108951F920F920FB60F9211242F9320
:100430003F934F935F936F937F938F939F93AF936C
:10044000BF93EF93FF93E091B503F091B60330971C
:1004500009F457C0868DA685B785958581FF04C0B0
:100460008C91892329F44DC08C91892309F049C0CE
:10047000A389B4899C918589809589238C938689E9
:1004800097890197F1F7208D318DA685B785758500
:1004900058E040E0C9010197F1F7842F90E095956D
:1004A0008795482F6C91672309F04068515091F768
:1004B000868D81FD40958091B3019091B4010196A4
:1004C00091702091B1013091B2018217930761F0D0
:1004D000A091B301B091B401AB54BE4F4C93909333
:1004E000B4018093B30103C0868D8160868F828DB5
:1004F000938D0197F1F7A389B4898C919589892B04
:100500008C93FF91EF91BF91AF919F918F917F91CC
:100510006F915F914F913F912F910F900FBE0F9070
:100520001F9018952EE431E0FC01318320830C9458
:10053000CF011F93CF93DF93EC01162F6E8D66953D
:10054000617081E06827812F0E94350861E0812F6A
:100550000E94FC07812F90E0FC01E458FF4FE491DA
:10056000E88BFC01E057FF4FE491F0E0EE0FFF1F36
:10057000E255FF4F859194919A8B898BDF91CF91B2
:100580001F9108951F93CF93DF93EC01162F60E026
:10059000812F0E94FC078E8D81FD04C061E0812FB8
:1005A0000E9435081C87812F90E0FC01E458FF4F22
:1005B000E491ED87FC01E057FF4FE491F0E0EE0F8E
:1005C000FF1FEC55FF4F859194919F878E87DF9198
:1005D000CF911F910895FF920F931F93CF93DF93B5
:1005E000EC01F62E522F1B821A8208EE13E020E057
:1005F00030E00C831D832E833F838EE491E099834A
:1006000088831F8A1E8A198E188E1B8E1A8E1D8E45
:100610001C8E8E8D8E7F50FB81F98E8F642FCE01C4
:100620000E9499026F2DCE01DF91CF911F910F9102
:10063000FF900C94C202CF93DF93EC019A01AB01BF
:100640001B8E1A8E198E188E1F8A1E8A60E079E022
:100650008DE390E00E94B708C9012430310520F0F5
:10066000B9016350710902C061E070E07D8F6C8F49
:10067000EC85E63108F068C0B9017695679564317C
:10068000710518F06351710902C061E070E07F8B61
:100690006E8B069718F0C901059702C081E090E0C3
:1006A000998F888FC901880F991F820F931F969584
:1006B0008795969587958D30910510F00C9702C01F
:1006C00081E090E09B8F8A8F20916800E83050F0A5
:1006D00091E0EE3008F490E081E001C0880F9A9537
:1006E000EAF701C084E0822B809368002C852830D3
:1006F00038F02E3040F0263148F48CE690E008C007
:100700008DE690E005C08BE690E002C080E090E0CE
:100710009C8B8B8B283030F481E001C0880F2A95A8
:10072000EAF70DC0822F90E02E3010F4089701C038
:100730000E9791E001C0990F8A95EAF7892F8D8B6A
:100740008C8D9D8D0197F1F7CE01DF91CF910C94A7
:10075000E501089587EB93E00E948F0026E040E8D2
:1007600055E260E070E08AEB95E00E94E40487EBDC
:1007700093E00E94D3006AE571E08AEB95E00C9467
:1007800036061092B8031092B7031092B903089579
:10079000CF93DF9300D0CDB7DEB78AEB95E00E9410
:1007A0000104181619066CF48AEB95E00E941A04ED
:1007B00089831A82BE016F5F7F4F87EB93E00E94AF
:1007C000E10087EB93E00E94F000882331F06AEBB0
:1007D00073E08AEB95E00E9436060F900F90DF9150
:1007E000CF9108950E9498070E94A9030E94AA032E
:1007F000CEE2D4E00E94C8032097E1F30E942E04C9
:10080000F9CFFC01818D228D90E0805C9F4F821B8F
:1008100091098F7399270895FC01918D828D981706
:1008200031F0828DE80FF11D858D90E008958FEFF6
:100830009FEF0895FC01918D828D981761F0828D54
:10084000DF01A80FB11D5D968C91928D9F5F9F7304
:10085000928F90E008958FEF9FEF08958EE995E0D5
:10086000892B49F080E090E0892B29F00E949E05B9
:1008700081110C9400000895FC01848DDF01A80F04
:10088000B11DA35ABF4F2C91848D90E001968F73B8
:100890009927848FA689B7892C93A089B1898C91D7
:1008A00080648C93938D848D981306C00288F3899D
:1008B000E02D80818F7D80830895CF93DF93EC01BD
:1008C000888D8823C9F0EA89FB89808185FD05C070
:1008D000A889B9898C9186FD0FC00FB607FCF5CFAA
:1008E000808185FFF2CFA889B9898C9185FFEDCFF2
:1008F000CE010E943C04E7CFDF91CF910895CF92C3
:10090000DF92FF920F931F93CF93DF931F92CDB788
:10091000DEB76C0181E0D60158968C9358975B96B0
:100920009C915B975C968C915C97981307C050964E
:10093000ED91FC915197808185FD2EC0F601038DCC
:1009400010E00F5F1F4F0F731127F02EF601848DFB
:10095000F81211C00FB607FCF9CFD6015096ED91F1
:10096000FC915197808185FFF1CFC60169830E9478
:100970003C046981EBCF838DE80FF11DE35AFF4FF3
:100980006083D6015B960C935B975296ED91FC9138
:100990005397808180620CC0D6015696ED91FC91F0
:1009A000579760835096ED91FC91519780818064B8
:1009B000808381E090E00F90DF91CF911F910F91A4
:1009C000FF90DF90CF900895BF92CF92DF92EF9289
:1009D000FF92CF93DF93EC016A017B01B22EE8898D
:1009E000F98982E08083411581EE58076105710520
:1009F000A1F060E079E08DE390E0A70196010E940C
:100A00009508215031094109510956954795379567
:100A10002795211580E1380798F0E889F989108237
:100A200060E874E88EE190E0A70196010E949508C5
:100A30002150310941095109569547953795279518
:100A4000EC85FD853083EE85FF852083188EEC894B
:100A5000FD89B082EA89FB89808180618083EA898F
:100A6000FB89808188608083EA89FB898081806836
:100A70008083EA89FB8980818F7D8083DF91CF919C
:100A8000FF90EF90DF90CF90BF9008951F920F924C
:100A90000FB60F9211242F938F939F93EF93FF9391
:100AA000E091CA05F091CB058081E091D005F091ED
:100AB000D10582FD12C090818091D3058F5F8F7325
:100AC0002091D405821751F0E091D305F0E0E6546F
:100AD000FA4F958F8093D30501C08081FF91EF91EC
:100AE0009F918F912F910F900FBE0F901F9018958F
:100AF0001F920F920FB60F9211242F933F934F9393
:100B00005F936F937F938F939F93AF93BF93EF9375
:100B1000FF938AEB95E00E943C04FF91EF91BF9117
:100B2000AF919F918F917F916F915F914F913F9185
:100B30002F910F900FBE0F901F9018958AEB95E0A4
:100B40000E94010421E0892B09F420E0822F0895FE
:100B50001092BD051092BC0588EE93E0A0E0B0E0D5
:100B60008093BE059093BF05A093C005B093C105C7
:100B700084E791E09093BB058093BA0585EC90E003
:100B80009093C7058093C60584EC90E09093C905C7
:100B90008093C80580EC90E09093CB058093CA05C4
:100BA00081EC90E09093CD058093CC0582EC90E0B1
:100BB0009093CF058093CE0586EC90E09093D1057D
:100BC0008093D0051092D3051092D4051092D505CC
:100BD0001092D6050895CF92DF92EF92FF920F9375
:100BE0001F93CF93DF937C016A01EB0100E010E0DB
:100BF0000C151D0571F06991D701ED91FC910190E3
:100C0000F081E02DC7010995892B19F00F5F1F4F67
:100C1000EFCFC801DF91CF911F910F91FF90EF901F
:100C2000DF90CF9008956115710581F0DB010D9083
:100C30000020E9F7AD0141505109461B570BDC017B
:100C4000ED91FC910280F381E02D099480E090E029
:100C500008950C941306DC01ED91FC910190F08154
:100C6000E02D099460E871E00C9413060F931F9334
:100C7000CF93DF93EC010E9413068C01CE010E94FA
:100C80003206800F911FDF91CF911F910F91089530
:100C90008F929F92AF92BF92CF92DF92EF92FF928C
:100CA0000F931F93CF93DF93CDB7DEB7A1970FB606
:100CB000F894DEBF0FBECDBF7C01C42EE52FCB0163
:100CC000D22E19A221E02D1510F02AE0D22E8E018D
:100CD0000F5D1F4F8D2C912CA12CB12C6C2D7E2FD4
:100CE000A50194010E9495088C2DD29E8019112493
:100CF000015011098A3014F4805D01C0895CF8014B
:100D00008083211531054105510521F0C22EE32FC5
:100D1000CA01E4CFB801C7010E941306A1960FB61D
:100D2000F894DEBF0FBECDBFDF91CF911F910F9121
:100D3000FF90EF90DF90CF90BF90AF909F908F90FB
:100D40000895CF92DF92EF92FF920F931F93CF936C
:100D5000DF93EC016A017B012115310579F4E8810B
:100D6000F9810190F081E02D642FDF91CF911F91E7
:100D70000F91FF90EF90DF90CF9009942A303105CA
:100D8000E9F477FF1AC06DE20E942B068C0144271C
:100D90005527BA014C195D096E097F092AE0CE0179
:100DA0000E944806800F911FDF91CF911F910F91F4
:100DB000FF90EF90DF90CF9008952AE0B701A60151
:100DC000CE01DF91CF911F910F91FF90EF90DF90B7
:100DD000CF900C9448060F931F93CF93DF93EC01B1
:100DE0009A01AB01662757FD6095762F0E94A106F8
:100DF0008C01CE010E943206800F911FDF91CF91AE
:100E00001F910F9108951F920F920FB60F92112408
:100E10002F933F938F939F93AF93BF9380915806E7
:100E200090915906A0915A06B0915B0630915706F1
:100E300023E0230F2D3720F40196A11DB11D05C01D
:100E400026E8230F0296A11DB11D2093570680931B
:100E5000580690935906A0935A06B0935B0680916A
:100E60005C0690915D06A0915E06B0915F060196CA
:100E7000A11DB11D80935C0690935D06A0935E0654
:100E8000B0935F06BF91AF919F918F913F912F914A
:100E90000F900FBE0F901F9018953FB7F894809158
:100EA0005C0690915D06A0915E06B0915F0626B546
:100EB000A89B05C02F3F19F00196A11DB11D3FBF92
:100EC0006627782F892F9A2F620F711D811D911D22
:100ED00042E0660F771F881F991F4A95D1F7089542
:100EE000CF92DF92EF92FF92CF93DF936B017C0161
:100EF0000E944D07EB01C114D104E104F10489F013
:100F00000E9494080E944D076C1B7D0B683E734045
:100F100090F381E0C81AD108E108F108C851DC4F0C
:100F2000EACFDF91CF91FF90EF90DF90CF900895BF
:100F3000789484B5826084BD84B5816084BD85B5B4
:100F4000826085BD85B5816085BDEEE6F0E080817B
:100F500081608083E1E8F0E010828081826080839C
:100F6000808181608083E0E8F0E08081816080831F
:100F7000E1EBF0E0808184608083E0EBF0E0808151
:100F800081608083EAE7F0E08081846080838081F3
:100F9000826080838081816080838081806880839B
:100FA0001092C1000895833081F028F4813099F0C7
:100FB0008230A1F008958730A9F08830B9F08430EC
:100FC000D1F4809180008F7D03C0809180008F7765
:100FD00080938000089584B58F7702C084B58F7D9B
:100FE00084BD08958091B0008F7703C08091B000D8
:100FF0008F7D8093B0000895CF93DF9390E0FC0144
:10100000E458FF4F2491FC01E057FF4F849188235F
:1010100049F190E0880F991FFC01E854FF4FA5911A
:10102000B49182559F4FFC01C591D4919FB7611136
:1010300008C0F8948C91209582238C938881822318
:101040000AC0623051F4F8948C91322F309583238A
:101050008C938881822B888304C0F8948C91822B96
:101060008C939FBFDF91CF9108950F931F93CF93E0
:10107000DF931F92CDB7DEB7282F30E0F901E85992
:10108000FF4F8491F901E458FF4F1491F901E057A3
:10109000FF4F04910023C9F0882321F069830E9447
:1010A000D3076981E02FF0E0EE0FFF1FE255FF4FFD
:1010B000A591B4919FB7F8948C91611103C01095DC
:1010C000812301C0812B8C939FBF0F90DF91CF9123
:1010D0001F910F910895CF93DF93282F30E0F901EE
:1010E000E859FF4F8491F901E458FF4FD491F90179
:1010F000E057FF4FC491CC2391F081110E94D30798
:10110000EC2FF0E0EE0FFF1FEC55FF4FA591B491CF
:101110002C912D2381E090E021F480E002C080E05A
:1011200090E0DF91CF9108950895A1E21A2EAA1BB5
:10113000BB1BFD010DC0AA1FBB1FEE1FFF1FA21787
:10114000B307E407F50720F0A21BB30BE40BF50B84
:10115000661F771F881F991F1A9469F7609570950D
:10116000809590959B01AC01BD01CF010895052E9E
:1011700097FB1EF400940E94CE0857FD07D00E94F2
:10118000950807FC03D04EF40C94CE08509540957A
:10119000309521953F4F4F4F5F4F08959095809523
:1011A000709561957F4F8F4F9F4F0895EE0FFF1FF2
:1011B0000590F491E02D099410E0C8ECD0E004C053
:1011C000FE010E94D8082296CA3CD107C9F7F894BC
:0211D000FFCF4F
:1011D20044454255473A2043757272656E742050F9
:1011E2005752454E2070696E207374617475733A5C
:1011F2002000526573657474696E6720524E3532F1
:1012020020746F20666163746F7279206465666111
:10121200756C747300522C310A0000000000460104
:10122200EB05B9011D0199019801524E353220702A
:10123200726F6772616D6D696E67206D6F646500B4
:10124200000000007F04EB0501041A040C045D0495
:101252000D0A006E616E00696E66006F7666002E82
:0212620000008A
:00000001FF
