:100000000C9465000C948D000C948D000C94D4011C
:100010000C94D4010C94D4010C948D000C948D009C
:100020000C948D000C948D000C948D000C948D001C
:100030000C948D000C948D000C948D000C948D000C
:100040000C9403060C948D000C9408050C943A054E
:100050000C948D000C948D000C948D000C948D00EC
:100060000C948D000C948D0000000008000201002B
:100070000003040700000000000000000102040863
:100080001020408001020408102001020408102002
:10009000040404040404040402020202020203032E
:1000A00003030303000000002300260029000000D2
:1000B0000000250028002B0000000000240027007D
:1000C0002A00A70083036A05AE0011241FBECFEFEC
:1000D000D8E0DEBFCDBF11E0A0E0B1E0E8EEFEE089
:1000E00002C005900D92A834B107D9F726E0A8E424
:1000F000B1E001C01D92A631B207E1F710E0C8ECF3
:10010000D0E004C02297FE010E946307C23CD107E1
:10011000C9F70E94B4030C9467070C94000061E0D7
:1001200084E00E94B10661E084E00C94EA0640E8B5
:1001300055E260E070E088E491E00E94DD0260E05A
:1001400084E00C94EA0688E491E00C94EB0520E04E
:1001500045E066E088E491E00C94AD0288E491E02B
:100160000C945402CF93DF93EC0188E491E00E9459
:100170007B0118161906FCF488E491E00E94DF0068
:100180008D3099F3288139818A3049F481E08A835E
:10019000FE01E20FF31F1382198218820DC02F3364
:1001A00031051CF7FE01E20FF31F83832F5F3F4FE2
:1001B00039832883DACF80E0DF91CF9108952091B1
:1001C0006B0330916C0328173907F9F4209167010C
:1001D000309168018091690190916A01281739076F
:1001E000A1F0E0916701F0916801E559FE4F80812F
:1001F00020916701309168012F5F3F4F317030933C
:1002000068012093670190E008958FEF9FEF0895B4
:100210001F93CF93DF93DC015C968D919C915D974A
:10022000009749F481E090E013969C938E93129787
:1002300080E090E03BC05196ED91FC915297509632
:100240002C915097322F30951FB75E964C915E9748
:1002500041FB772770F941FD6095F8944081772341
:1002600011F0422B01C043234083EC012197F1F7A9
:1002700048E0508160FF02C0522B01C053235083DD
:10028000EC012197F1F76695415099F7808177232A
:1002900011F0832301C0822B80831FBF5C968D9158
:1002A0009C915D970197F1F781E090E0DF91CF910C
:1002B0001F910895089520916B0330916C032817C6
:1002C0003907B1F42091670130916801809169018B
:1002D00090916A012817390759F0E0916701F09170
:1002E0006801E559FE4F8081992787FD9095089513
:1002F0008FEF9FEF089520916B0330916C032817C7
:10030000390761F48091690190916A012091670138
:1003100030916801821B930B9170089580E090E00A
:100320000895E0916B03F0916C03E817F90769F405
:10033000A389B4899C918589809589238C93109297
:100340006C0310926B0381E0089580E00895CF93D1
:10035000DF93EC018A8D9B8D892B11F180916B03CA
:1003600090916C038C179D07D9F0009711F00E94B3
:1003700091018E8D8E7F8E8F10926A01109269018D
:100380001092680110926701D0936C03C0936B03C5
:10039000EB89FC8980819D89892B808381E001C064
:1003A00080E0DF91CF9108951F920F920FB60F92C8
:1003B00011242F933F934F935F936F937F938F936A
:1003C0009F93AF93BF93EF93FF93E0916B03F091F3
:1003D0006C03309709F457C0868DA685B78595853F
:1003E00081FF04C08C91892329F44DC08C9189230D
:1003F00009F049C0A389B4899C9185898095892396
:100400008C93868997890197F1F7208D318DA68588
:10041000B785758558E040E0C9010197F1F7842F51
:1004200090E095958795482F6C91672309F0406877
:10043000515091F7868D81FD409580916901909191
:100440006A010196917020916701309168018217CD
:10045000930761F0A0916901B0916A01A559BE4F5F
:100460004C9390936A018093690103C0868D8160EB
:10047000868F828D938D0197F1F7A389B4898C9132
:100480009589892B8C93FF91EF91BF91AF919F91AB
:100490008F917F916F915F914F913F912F910F902D
:1004A0000FBE0F901F90189524E031E0FC013183BE
:1004B00020830C9491011F93CF93DF93EC01162FAF
:1004C0006E8D6695617081E06827812F0E94EA0633
:1004D00061E0812F0E94B106812F90E0FC01E45879
:1004E000FF4FE491E88BFC01E057FF4FE491F0E00F
:1004F000EE0FFF1FE255FF4F859194919A8B898BE8
:10050000DF91CF911F9108951F93CF93DF93EC015B
:10051000162F60E0812F0E94B1068E8D81FD04C0F0
:1005200061E0812F0E94EA061C87812F90E0FC0188
:10053000E458FF4FE491ED87FC01E057FF4FE49151
:10054000F0E0EE0FFF1FEC55FF4F859194919F87D0
:100550008E87DF91CF911F910895FF920F931F9384
:10056000CF93DF93EC01F62E522F1B821A8208EEF6
:1005700013E020E030E00C831D832E833F8384E072
:1005800091E0998388831F8A1E8A198E188E1B8E8C
:100590001A8E1D8E1C8E8E8D8E7F50FB81F98E8F54
:1005A000642FCE010E945B026F2DCE01DF91CF91AF
:1005B0001F910F91FF900C948402CF93DF93EC0175
:1005C0009A01AB011B8E1A8E198E188E1F8A1E8AF5
:1005D00060E079E08DE390E00E944207C901243099
:1005E000310520F0B9016350710902C061E070E08B
:1005F0007D8F6C8FEC85E63108F068C0B901769587
:1006000067956431710518F06351710902C061E0AA
:1006100070E07F8B6E8B069718F0C901059702C0BA
:1006200081E090E0998F888FC901880F991F820F10
:10063000931F96958795969587958D30910510F027
:100640000C9702C081E090E09B8F8A8F2091680018
:10065000E83050F091E0EE3008F490E081E001C025
:10066000880F9A95EAF701C084E0822B8093680096
:100670002C85283038F02E3040F0263148F48CE6B6
:1006800090E008C08DE690E005C08BE690E002C0E7
:1006900080E090E09C8B8B8B283030F481E001C0AF
:1006A000880F2A95EAF70DC0822F90E02E3010F4C3
:1006B000089701C00E9791E001C0990F8A95EAF75B
:1006C000892F8D8B8C8D9D8D0197F1F7CE01DF9158
:1006D000CF910C94A70108958DE693E00E948F00BE
:1006E00026E040E855E260E070E080E795E00E9497
:1006F000A6048DE693E00E94970060E171E080E738
:1007000095E00C94F10510926E0310926D03109217
:100710006F030895CF93DF9300D0CDB7DEB780E7A6
:1007200095E00E94C303181619066CF480E795E063
:100730000E94DC0389831A82BE016F5F7F4F8DE6C2
:1007400093E00E94A3008DE693E00E94B20088230C
:1007500031F060E773E080E795E00E94F1050F90CB
:100760000F90DF91CF9108950E944D060E946B0378
:100770000E946C03C0EFD3E00E948A032097E1F34C
:100780000E94F003F9CFFC01818D228D90E0805C06
:100790009F4F821B91098F7399270895FC01918DBA
:1007A000828D981731F0828DE80FF11D858D90E0D4
:1007B00008958FEF9FEF0895FC01918D828D98171A
:1007C00061F0828DDF01A80FB11D5D968C91928D35
:1007D0009F5F9F73928F90E008958FEF9FEF089532
:1007E00080E695E0892B49F080E090E0892B29F0A4
:1007F0000E94600581110C9400000895FC01848D15
:10080000DF01A80FB11DA35ABF4F2C91848D90E03A
:1008100001968F739927848FA689B7892C93A08915
:10082000B1898C9180648C93938D848D981306C0CC
:100830000288F389E02D80818F7D80830895CF9396
:10084000DF93EC01888D8823C9F0EA89FB898081D8
:1008500085FD05C0A889B9898C9186FD0FC00FB6AA
:1008600007FCF5CF808185FFF2CFA889B9898C91EB
:1008700085FFEDCFCE010E94FE03E7CFDF91CF9140
:100880000895CF92DF92FF920F931F93CF93DF9340
:100890001F92CDB7DEB76C0181E0D60158968C93DC
:1008A00058975B969C915B975C968C915C9798139C
:1008B00007C05096ED91FC915197808185FD2EC027
:1008C000F601038D10E00F5F1F4F0F731127F02EFD
:1008D000F601848DF81211C00FB607FCF9CFD601CE
:1008E0005096ED91FC915197808185FFF1CFC60123
:1008F00069830E94FE036981EBCF838DE80FF11DB0
:10090000E35AFF4F6083D6015B960C935B97529638
:10091000ED91FC915397808180620CC0D601569670
:10092000ED91FC91579760835096ED91FC91519712
:1009300080818064808381E090E00F90DF91CF918F
:100940001F910F91FF90DF90CF900895BF92CF92AB
:10095000DF92EF92FF92CF93DF93EC016A017B016C
:10096000B22EE889F98982E08083411581EE58072B
:1009700061057105A1F060E079E08DE390E0A701E9
:1009800096010E94200721503109410951095695CD
:10099000479537952795211580E1380798F0E88924
:1009A000F989108260E874E88EE190E0A701960171
:1009B0000E94200721503109410951095695479558
:1009C00037952795EC85FD853083EE85FF8520835F
:1009D000188EEC89FD89B082EA89FB89808180616B
:1009E0008083EA89FB89808188608083EA89FB892A
:1009F000808180688083EA89FB8980818F7D808304
:100A0000DF91CF91FF90EF90DF90CF90BF9008954E
:100A10001F920F920FB60F9211242F938F939F93D3
:100A2000EF93FF93E0918005F09181058081E09143
:100A30008605F091870582FD12C09081809189051D
:100A40008F5F8F7320918A05821751F0E09189059D
:100A5000F0E0E059FA4F958F8093890501C08081BD
:100A6000FF91EF919F918F912F910F900FBE0F905B
:100A70001F9018951F920F920FB60F9211242F936B
:100A80003F934F935F936F937F938F939F93AF9316
:100A9000BF93EF93FF9380E795E00E94FE03FF91E1
:100AA000EF91BF91AF919F918F917F916F915F91E6
:100AB0004F913F912F910F900FBE0F901F9018955F
:100AC00080E795E00E94C30321E0892B09F420E030
:100AD000822F0895109273051092720588EE93E0AC
:100AE000A0E0B0E08093740590937505A09376051F
:100AF000B09377058AE291E0909371058093700539
:100B000085EC90E090937D0580937C0584EC90E0EB
:100B100090937F0580937E0580EC90E09093810513
:100B20008093800581EC90E090938305809382050B
:100B300082EC90E0909385058093840586EC90E0AC
:100B400090938705809386051092890510928A05F7
:100B500010928B0510928C050895CF92DF92EF9240
:100B6000FF920F931F93CF93DF937C016A01EB01F8
:100B700000E010E00C151D0571F06991D701ED91B1
:100B8000FC910190F081E02DC7010995892B19F0A6
:100B90000F5F1F4FEFCFC801DF91CF911F910F91D2
:100BA000FF90EF90DF90CF9008956115710581F06F
:100BB000DB010D900020E9F7AD0141505109461BC2
:100BC000570BDC01ED91FC910280F381E02D09943B
:100BD00080E090E008950C94D50566E371E00C94F4
:100BE000D5050F931F93CF93DF93EC010E94D5059A
:100BF0008C01CE010E94ED05800F911FDF91CF91F6
:100C00001F910F9108951F920F920FB60F9211240A
:100C10002F933F938F939F93AF93BF9380910E0633
:100C200090910F06A0911006B091110630910D061B
:100C300023E0230F2D3720F40196A11DB11D05C01F
:100C400026E8230F0296A11DB11D20930D06809367
:100C50000E0690930F06A0931006B0931106809194
:100C6000120690911306A0911406B09115060196F4
:100C7000A11DB11D8093120690931306A093140634
:100C8000B0931506BF91AF919F918F913F912F9196
:100C90000F900FBE0F901F901895789484B58260C6
:100CA00084BD84B5816084BD85B5826085BD85B510
:100CB000816085BDEEE6F0E0808181608083E1E8BF
:100CC000F0E01082808182608083808181608083F7
:100CD000E0E8F0E0808181608083E1EBF0E08081FA
:100CE00084608083E0EBF0E0808181608083EAE7CC
:100CF000F0E0808184608083808182608083808155
:100D0000816080838081806880831092C100089513
:100D1000833081F028F4813099F08230A1F0089579
:100D20008730A9F08830B9F08430D1F48091800008
:100D30008F7D03C0809180008F778093800008951D
:100D400084B58F7702C084B58F7D84BD089580916E
:100D5000B0008F7703C08091B0008F7D8093B0008A
:100D60000895CF93DF9390E0FC01E458FF4F249166
:100D7000FC01E057FF4F8491882349F190E0880FF0
:100D8000991FFC01E854FF4FA591B49182559F4FE4
:100D9000FC01C591D4919FB7611108C0F8948C9162
:100DA000209582238C93888182230AC0623051F47B
:100DB000F8948C91322F309583238C938881822BE9
:100DC000888304C0F8948C91822B8C939FBFDF9111
:100DD000CF9108950F931F93CF93DF931F92CDB7B9
:100DE000DEB7282F30E0F901E859FF4F8491F9016F
:100DF000E458FF4F1491F901E057FF4F049100238D
:100E0000C9F0882321F069830E9488066981E02F58
:100E1000F0E0EE0FFF1FE255FF4FA591B4919FB791
:100E2000F8948C91611103C01095812301C0812B2E
:100E30008C939FBF0F90DF91CF911F910F910895D9
:100E4000A1E21A2EAA1BBB1BFD010DC0AA1FBB1FCE
:100E5000EE1FFF1FA217B307E407F50720F0A21B40
:100E6000B30BE40BF50B661F771F881F991F1A94AD
:100E700069F760957095809590959B01AC01BD01D7
:100E8000CF010895052E97FB1EF400940E94590788
:100E900057FD07D00E94200707FC03D04EF40C94A6
:100EA000590750954095309521953F4F4F4F5F4FD3
:100EB000089590958095709561957F4F8F4F9F4FC6
:100EC0000895EE0FFF1F0590F491E02D099410E0B6
:100ED000C8ECD0E004C0FE010E9463072296CA3C21
:080EE000D107C9F7F894FFCF18
:100EE800000000000801AD057B01DF005B015A012D
:100EF800524E35322070726F6772616D6D696E6720
:100F0800206D6F646500000000004104AD05C30357
:100F1800DC03CE031F040D0A006E616E00696E6665
:080F2800006F7666002E000048
:00000001FF
